:030000000208A84B
:0C08A800787FE4F6D8FD7581200208EF8F
:1009D300010E00010A01010C02010804010B0801C8
:0909E3000D10010920C101C10041
:0E09ED001209FBE50A2509F59012080080FBAF
:10093400B2A07F0A120947B2A0120947B2A0120955
:0309440047B2A017
:10094700E4F50EF50EE50ED39F5016758901758CEB
:100957004B758AFDD28C308DFDC28CC28D050E8001
:02096700E42288
:10080000E50AFD7C002509FFE433FEAB907A00EF9A
:10081000B50312EAB5060EA20192A07F781209472D
:10082000E50D0208A3E50D2DFFE43CFEAD90EF6D54
:100830007001EE701D30010E120934B2A0E50B25D7
:1008400008F590C201227F28120947E50B2508F51B
:100850009022AD0B7C00ED2508FFEC33FEAB907AC7
:1008600000EFB50314EAB50610A20092A07F78123B
:100870000947E50B250CF590227E00ED250CFFEED7
:100880003CFEAD90EF6D7001EE701C30000E120951
:1008900034B2A0E509250AF590C200227F2812098A
:0808A00047E509250AF5902245
:0B09FB00D2AFD2A8D288D28AD2AA22A2
:0300130002096976
:10096900C0E0C0D075D000C004C005C006C007E50E
:100979000A2509FFE433FEAD907C00EFB50509ECCB
:10098900B50605750E64D200D007D006D005D0048F
:05099900D0D0D0E032D7
:0300030002099E51
:10099E00C0E0C0D075D000C004C005C006C007E5D9
:1009AE0008250BFFE433FEAD907C00EFB50509EC96
:1009BE00B50605750E64D201D007D006D005D00459
:0509CE00D0D0D0E032A2
:1008B4000209EDE493A3F8E493A34003F68001F264
:1008C40008DFF48029E493A3F85407240CC8C33345
:1008D400C4540F4420C8834004F456800146F6DF14
:1008E400E4800B01020408102040809009D3E47EC8
:1008F400019360BCA3FF543F30E509541FFEE49309
:10090400A360010ECF54C025E060A840B8E493A3CF
:10091400FAE493A3F8E493A3C8C582C8CAC583CAFA
:10092400F0A3C8C582C8CAC583CADFE9DEE780BEB2
:0109EC00000A
:00000001FF
