:03000000020FA04C
:0C0FA000787FE4F6D8FD758138020A1154
:100800000A0D0A0D000A0D54686520636F6E746549
:100810006E747320696E20496E7465726E616C200F
:1008200052414D206C6F636174696F6E7320000AD2
:100830000D54686520636F6E74656E747320696E05
:1008400020466C61736820524F4D206C6F63617459
:10085000696F6E7320000A0D54686520636F6E74B3
:10086000656E747320696E20457870616E6465648E
:100870002052414D206C6F636174696F6E7320006C
:10088000202D20002061726520757064617465649C
:1008900020776974683A2000206172653A20000A66
:1008A0000D456E7465722061207374617274696E97
:1008B00067206164647265737320696E206865786F
:1008C0002845783A203730293A000D456E74657214
:1008D00020616E20656E64696E6720616464726574
:1008E000737320696E206865782845783A2037331D
:1008F000293A000D4164647265737320697320693D
:100900006E76616C69642E2052652D656E74657219
:1009100000546869732070726F6772616D20616C3A
:100920006C6F777320796F752061636365737320D3
:10093000646966666572656E742070617274732096
:100940006F66206D656D6F727920617265617320CD
:10095000696E2074686520383035312E0A0D0D001F
:100960000A0D0D43686F6F73652061206D656D6FB3
:100970007279206172656120746F206163636573B1
:10098000733A200A0D0D312E20496E7465726E6126
:100990006C2052414D0A0D0D322E20466C61736859
:1009A00020524F4D0A0D0D332E20457870616E6434
:1009B00065642052414D0A0D000A0D456E74657242
:1009C000205220666F722072656164206F7220571A
:1009D00020666F72207772697465290A0D000A0D0E
:1009E000496E76616C69642063686F6963650A0D9E
:1009F000000A0D506C6561736520656E7465722028
:100A00006E6577206461746120696E206865783A4C
:010A100000E5
:100A1100E4F509F50A120FAC7BFF7A097911120F7F
:100A210079E50A70347BFF7A097960120F79120F28
:100A3100C08F09120EFD8F08E4FBFAFDFCAF09120D
:100A41000B9A8E0B8F0CAB0CAA0B7D017C00AF09AE
:100A5100120B9A8E0D8F0E8003750852850B0F8530
:100A61000C10D3E510950EE50F950D4003020B8791
:100A7100E50924CE606B147003020B0224026003AB
:100A8100020B67AF08120F8FBF57057D01120EB021
:100A9100E510B50E19E50FB50D14AF08120F8FBF94
:100AA100570C7D577F017E00120C78750A01E51005
:100AB100B50C19E50FB50B14AF08120F8FBF520C0F
:100AC100E50A70087D527F01FE120C78AF08120F03
:100AD1008FEF64526003020B67F50AA810E6020B60
:100AE1005D750852E510B50C0EE50FB50B097D5289
:100AF1007F027E00120C78851082850F83E493803B
:100B01005BAF08120F8FBF57057D03120EB0E510C2
:100B1100B50E19E50FB50D14AF08120F8FBF570CA5
:100B21007D577F037E00120C78750A01E510B50C24
:100B310019E50FB50B14AF08120F8FBF520CE50A60
:100B410070087D527F03FE120C78AF08120F8FBF21
:100B51005214E4F50A851082850F83E0FF7B007A49
:100B6100007911120E4CE50A7011AF08120F8FBFF8
:100B710052097B007A007911120F790510E5107086
:100B810002050F020A63E50A6003020A227BFF7A6B
:090B9100087900120F79020A2212
:040C78008E158F1630
:100C7C007517FF751808751905751AFF751B08751A
:100C8C001C2F751DFF751E08751F567520FF7521CD
:100C9C00087522807523FF7524087525847526FF39
:100CAC00752708752898ED64527050E51664014557
:100CBC00157003120F73E516640245157009AB1A13
:100CCC00AA1BA91C120F79E516640345157009AB14
:100CDC001DAA1EA91F120F797B007A00792F120F03
:100CEC0079AB20AA21A922120F797B007A007934E2
:100CFC00120F79AB26AA27A928803DE51664014579
:100D0C00157003120F73E516640345157009AB1DBE
:100D1C00AA1EA91F120F797B007A00792F120F7966
:100D2C00AB20AA21A922120F797B007A0079341208
:0B0D3C000F79AB23AA24A925120F7920
:010D47002289
:0A0B9A008F158C168D178A188B1921
:100BA400E4F51EF51F7520FF75210875229F752336
:100BB400FF7524087525CA7526FF7527087528F35F
:100BC400E515B4310E751A00751BFF751E00751FEF
:100BD40030801EE515B4320874FFF51AF51B801138
:100BE400E515B43308751A06751BFF8004E4FEFF8F
:100BF40022E51775F003A42420F8860308E6FA0812
:100C0400E6F9120F79E51745167010FB7A00792F73
:100C1400120F487B007A00792F800F7B007A0079CD
:100C240034120F487B007A007934120D488E1C8FE1
:100C34001DD3E51D951BE51C951A501BC3E51D9599
:100C44001FE51C951E4010E51D9519E51C951850CF
:100C54001EE51745166018AB26AA27A928120F7996
:100C6400AB19AA18AD17AC16AF15120B9A80C2AE09
:030C74001CAF1D95
:010C7700225A
:020EFD008F154F
:100EFF00E51564316006E5156433703A7BFF7A09B6
:100F0F0079B9120F79120FC08F16AF16120F8FEF1C
:100F1F006457601AAF16120F8FEF645260107BFF89
:100F2F007A0979DE120F79AF15120EFD80DCAF163C
:080F3F00120FB8AF16227F006B
:010F47002287
:080FB8008F993099FDC29922C6
:0C0FAC00758920758DFD759850D28E223D
:060F7300AB17AA18A91932
:100F7900120DD26010F5993099FDC299740129F9C1
:060F8900E43AFA80EB22BD
:100E4C00EF54F0C4540F120E18120DD2FED39409A5
:100E5C00748094804006EE2437FE8006120DD22456
:100E6C0030FEEE120E18EF540F900001120E2A9065
:100E7C000001120DEBFFD39409748094804006EFAF
:100E8C002437FF8009900001120DEB2430FF9000F5
:100E9C0001EF120E2A9000027420120E2A90000309
:040EAC00E4020E2A24
:060EB0007C00AF10AE0F44
:080EB6008E158F168C178D18A4
:100EBE007BFF7A0979F1120F797B007A007919128A
:100ECE000F48E51864014517700CFB7A007919126A
:100EDE000D48A816A607E518640345177010FB7A8F
:0E0EEE00007919120D48851682851583EFF0E4
:010EFC0022D3
:070FC0003098FDAF99C298C3
:010FC7002207
:100F48003098FDAF99EF120E18740129F9E43AFAB6
:100F5800C298EF640D70E975990A3099FDC29974C9
:0B0F6800FF29F974FF3AFAE4020E18AA
:060D48008B298A2A892B89
:100D4E00E4F52CF52DF52EAB29AA2AA92BAF2E05ED
:100D5E002E8F82758300120DEBFF120F8FAD07EDF4
:100D6E00605DC39430401BEDD394395015E52DC40E
:100D7E00F8540FC868FFE52CC454F048FEED24D09B
:100D8E00802BEDC394414006EDD39446400CEDC349
:100D9E0094614027EDD394665021E52DC4F8540F8D
:100DAE00C868FFE52CC454F048FEED24C9FBE434BA
:100DBE00FFCB2FF52DEB3EF52C808CE4FEFF22AE03
:030DCE002CAF2D1A
:010DD10022FF
:100DD200BB010689828A83E0225002E722BBFE021F
:090DE200E32289828A83E4932252
:100DEB00BB010CE58229F582E5833AF583E02250BD
:100DFB0006E92582F8E622BBFE06E92582F8E22207
:0D0E0B00E58229F582E5833AF583E4932220
:100E1800BB010689828A83F0225002F722BBFE01B9
:020E2800F322B3
:100E2A00F8BB010DE58229F582E5833AF583E8F0FE
:100E3A00225006E92582C8F622BBFE05E92582C8AA
:020E4A00F22292
:100F8F00EFC39461400AEF947B5005EF24E0FF22FA
:010F9F00222F
:00000001FF
