:0300000002096191
:0C096100787FE4F6D8FD75811102096D65
:0B096D001208A112080012090F80F50B
:1008A100750842750980750A01E4F50BF50CF50B25
:1008B100F50C7590181209427590241209428508A9
:1008C10090120942759081120942E50A25E0FFE57F
:1008D10009C3134FF590120942E50A25E025E0FF0F
:1008E100E5091313543F4FF590120942E50C6401D9
:1008F100450B7006759018120942050CE50C700243
:0D090100050BC39402E50B6480948040A5B3
:01090E0022C6
:10080000750801750980E4F50AF50BF50CF50DF591
:100810000EF50FF50AF50BE4F50CF50DE50D450C9D
:100820007006759001120942E50D04FFF8E508080D
:100830008002C333D8FCF590120942050DE50D7016
:1008400002050CC39406E50C6480948040CEE4F568
:100850000EF50FE50F450E7006759080120942E502
:100860000F04FFF8E509088002C313D8FCF59012C5
:100870000942050FE50F7002050EC39406E50E64EC
:1008800080948040CE050BE50B7002050AC39402EC
:10089000E50A6480948050030208177590010209EC
:0108A0004215
:10090F0075087F7509FEE4F50AF50BF50AF50BE599
:10091F0008F4F590120942E509F4F5901209420521
:10092F000BE50B7002050AC39402E50A64809480FC
:02093F0040DD99
:010941002293
:10094200E4F510F511FFFEE4FDFC0DBD00010CED18
:0E095200F44C70F60FBF00010EEFF44E70E98A
:010960002274
:00000001FF
