:03000000020939B9
:0C093900787FE4F6D8FD75810902080003
:1008000075901812091A75902412091A75904212DF
:10081000091A75908112091A75904212091A759079
:100820002412091A75901812091A75902412091ABF
:1008300075904212091A75908112091A7590421228
:10084000091A75902412091A75901812091AE4F5FC
:100850009012091A12091775900212091A7590045C
:1008600012091A75900812091A75901012091A7552
:10087000902012091A75904012091A759080120979
:100880001A75904012091A75902012091A75901065
:1008900012091A75900812091A75900412091A752E
:1008A000900212091A12091775900212091A75900E
:1008B0000412091A75900812091A75901012091A73
:1008C00075902012091A75904012091A75908012BD
:1008D000091A75904012091A75902012091A75901C
:1008E0001012091A75900812091A75900412091A43
:1008F00075900212091A75900112091A75908012EA
:10090000091A75900112091A75908012091A7590CA
:070910000112091A020800A0
:03091700759001D7
:10091A00E4F508F509FFFEE4FDFC0DBD00010CED50
:0E092A00F44C70F60FBF00010EEFF44E70E9B2
:01093800229C
:00000001FF
