:03000000020A43AE
:0C0A4300787FE4F6D8FD758111020A1DD1
:100A1D00308003120942308103120000308203122C
:100A2D0008BD3083031209B17590FF120800E4F57B
:060A3D009012080080DAAF
:1008BD00750801750980750A10750B08E4F50CF5BE
:1008CD000D308270E4F50CAF0CEF3395E0FEC3EF05
:1008DD009403EE648094805023A807E508088002F5
:1008ED00C333D8FCFFAE0CA806E509088002C3137C
:1008FD00D8FC4FF590120800050C80CBE4F50DAF38
:10090D000DEF3395E0FEC3EF9403EE6480948050B9
:10091D00B0A807E50A088002C333D8FCFFAE0DA8C6
:10092D0006E50B088002C313D8FC4FF590120800A2
:04093D00050D80CB59
:010941002293
:1009B1007508807509FFE4F50AF50BF50CF50D30A6
:1009C1008359E4F50AF50BAF0BA807E50808800386
:1009D100A2E713D8FBF590120800050BE50B700296
:1009E100050AC39407E50A6480948040DAE4F50CB3
:1009F100F50DC3E50D9409E50C6480948050C0AFFA
:100A01000DA807E509088002C333D8FCF590120848
:0B0A110000050DE50D70DB050C80D723
:010A1C0022B7
:10094200750880750901E4F50AF50BF50CF50DF54E
:100952000EF50F308058E4F50CF50DAF0DA807E544
:1009620008088002C313D8FCF590120800050DE5B3
:100972000D7002050CC39407E50C6480948040DB83
:10098200E4F50EF50FC3E50F9407E50E648094803D
:1009920050C1AF0FA807E509088002C333D8FCF5A0
:0E09A20090120800050FE50F70DB050E80D7E0
:0109B0002224
:1008000020840C20850920860620870302089C305E
:100810008420E4FEFF758901758CFE758A34D28CC4
:10082000308DFDC28CC28D0FBF00010EBE03E6BF2E
:10083000E8E3308520E4FEFF758901758CFC758A3C
:1008400065D28C308DFDC28CC28D0FBF00010EBEF3
:1008500003E6BFE8E3308620E4FEFF758901758C6E
:10086000FA758A9AD28C308DFDC28CC28D0FBF0072
:10087000010EBE03E6BFE8E3308741E4FEFF758961
:1008800001758CF8758ACCD28C308DFDC28CC28DEE
:100890000FBF00010EBE03E6BFE8E322E4FEFF75D2
:1008A0008901758CFE758A34D28C308DFDC28CC264
:0C08B0008D0FBF00010EBE03E6BFE8E3A1
:0108BC002219
:00000001FF
