:03000000020A18D9
:0C0A1800787FE4F6D8FD758134020800F8
:1009F10008080C007580FF85809080F803000000D6
:100A01000208000C080000787FE4F6D8FD75810724
:070A110002080C00000001C7
:1008000078087C007D007BFF7A0979F17E007F0CFF
:100810001209CB78147C007D007BFF7A0979FD7E7C
:10082000007F071209CB781B7C007D007BFF7A0AD2
:1008300079047E007F101209CB782B7C007D007B31
:10084000FF7A0A79147E007F041209CB752F477551
:100850003042E4FF7531E37532F37533337534FF9D
:10086000FEEEC3940C74809480500A74082EF8E64F
:100870002FFF0E80ECEFF404F9E4FEEEC39407744E
:10088000809480500A74142EF8E62FFF0E80ECEF4F
:10089000F404FDE4FEEEC3941074809480500A7456
:1008A0001B2EF8E62FFF0E80ECEFF404FCE4FEEEC6
:1008B000C3940474809480500A742B2EF8E62FFFA2
:1008C0000E80ECEFF404FFE531B5011FE532B5050C
:1008D0001AE533B50415E534B5071075903F1200DD
:1008E0000075A07D120000852F802275903F1200B8
:0A08F0000075A07F12000085308023
:0108FA0022DB
:1008FB00E709F608DFFA8046E709F208DFFA803EDF
:10090B0088828C83E709F0A3DFFA8032E309F608CB
:10091B00DFFA8078E309F208DFFA807088828C8333
:10092B00E309F0A3DFFA806489828A83E0A3F608E7
:10093B00DFFA805889828A83E0A3F208DFFA804CC1
:10094B0080D280FA80C680D4806980F28033801098
:10095B0080A680EA809A80A880DA80E280CA803301
:10096B0089828A83ECFAE493A3C8C582C8CCC58379
:10097B00CCF0A3C8C582C8CCC583CCDFE9DEE78049
:10098B000D89828A83E493A3F608DFF9ECFAA9F0C8
:10099B00EDFB2289828A83ECFAE0A3C8C582C8CC1E
:1009AB00C583CCF0A3C8C582C8CCC583CCDFEADE37
:1009BB00E880DB89828A83E493A3F208DFF980CC99
:1009CB0088F0EF60010E4E60C388F0ED2402B40492
:1009DB000050B9F582EB2402B4040050AF23234539
:0609EB00822390094B730A
:00000001FF
